{
 "cells": [
  {
   "cell_type": "code",
   "execution_count": 1,
   "metadata": {},
   "outputs": [],
   "source": [
    "# NOTE: This uses a modified ethereum-etl here: https://github.com/MSilb7/optimism-etl\n",
    "\n",
    "import sys\n",
    "import json\n",
    "from web3 import Web3\n",
    "from web3.middleware import geth_poa_middleware\n",
    "sys.path.append(\"../helper_functions\")\n",
    "import ethereumetl_utils as eetl\n",
    "import web3py_utils as wpy\n",
    "import pandas_utils as pu\n",
    "import evm_utils as evm\n",
    "sys.path.pop()\n",
    "\n",
    "import pandas as pd\n",
    "from dotenv import load_dotenv\n",
    "import requests\n",
    "import datetime\n",
    "load_dotenv()\n",
    "import os\n",
    "\n",
    "configs = [\n",
    "        #  ['ethereum',os.environ.get('ETHEREUM_NODE'),'0x2bd9c2576fd499909a96965318a176c5d2d0edd2c7be2f481305c55dc5327bad']\n",
    "          ['optimism-goerli-bedrock',os.environ.get('OP_GOERLI_TEAM_NODE'),'0xa5f612c2a2b52a6dbd833eae46a6a8a5c3d237e7e5d93ba552ed8952ab2ecf30']\n",
    "          ,['optimism-legacy',os.environ.get('OP_NODE'),'0xf659ca817904644883c4180c68ca470ffda9d1bb6f3003e5be7feb8580d1f0c0']\n",
    "]"
   ]
  },
  {
   "cell_type": "code",
   "execution_count": 2,
   "metadata": {},
   "outputs": [
    {
     "name": "stdout",
     "output_type": "stream",
     "text": [
      "optimism-goerli-bedrock\n",
      "Transaction Receipt:\n",
      "AttributeDict({'blockHash': HexBytes('0xffe89694abce31978d537858ad54f7589c1a00647b1627079320d5a97f867020'), 'blockNumber': 10063754, 'contractAddress': None, 'cumulativeGasUsed': 230805, 'effectiveGasPrice': 1000000000, 'from': '0xFEED477fa168bcBeC7aBa14a5478Cff80796EDA8', 'gasUsed': 166792, 'l1Fee': '0x1edfa48781b0', 'l1FeeScalar': '1', 'l1GasPrice': '0x1186532c9', 'l1GasUsed': '0x1c30', 'logs': [AttributeDict({'address': '0x4D7aC323497637a39422E3365C40b55C8E6EC15C', 'blockHash': HexBytes('0xffe89694abce31978d537858ad54f7589c1a00647b1627079320d5a97f867020'), 'blockNumber': 10063754, 'data': '0x00000000000000000000000000000000000000000000000000000001984ab4800000000000000000000000000000000000000000000000000000000000000001000000000000000000000000c7153f37f2fae03cfb6c145b2b2317869f85d86b', 'logIndex': 0, 'removed': False, 'topics': [HexBytes('0x14763f9653228cd12887f43c05db1caec15aa7c42f8d1edabe741dcecf48c004'), HexBytes('0x000000000000000000000000000000000000000000000000000000000000110f')], 'transactionHash': HexBytes('0xa5f612c2a2b52a6dbd833eae46a6a8a5c3d237e7e5d93ba552ed8952ab2ecf30'), 'transactionIndex': 1}), AttributeDict({'address': '0x5E5c2b75Ea3a316791C35e60A8BE26998E782F9E', 'blockHash': HexBytes('0xffe89694abce31978d537858ad54f7589c1a00647b1627079320d5a97f867020'), 'blockNumber': 10063754, 'data': '0x000000000000000000000000000000000000000000000000000000016e9d12b80000000000000000000000000000000000000000000000000000000000000001000000000000000000000000c7153f37f2fae03cfb6c145b2b2317869f85d86b', 'logIndex': 1, 'removed': False, 'topics': [HexBytes('0x14763f9653228cd12887f43c05db1caec15aa7c42f8d1edabe741dcecf48c004'), HexBytes('0x000000000000000000000000000000000000000000000000000000000000112e')], 'transactionHash': HexBytes('0xa5f612c2a2b52a6dbd833eae46a6a8a5c3d237e7e5d93ba552ed8952ab2ecf30'), 'transactionIndex': 1})], 'logsBloom': HexBytes('0x00000000000000200000000000000200800000000000000000000000000000000000000000000000000000200000000000000000000000000000000000000000000000000000000000000000400000002000000000200000000000000000000000000000000000000000000000000000000000000000000000000000000000000000080000000000000000000000000000000000000000000000000000000000000000000001000000000000000000000000000000000000000000100000000000000000000000000000000000000000000000000000000000000000008000000080000000000000000000000000000000020000000000000000000208000000'), 'status': 1, 'to': '0xc7153F37F2fAE03CFB6C145B2B2317869f85D86b', 'transactionHash': HexBytes('0xa5f612c2a2b52a6dbd833eae46a6a8a5c3d237e7e5d93ba552ed8952ab2ecf30'), 'transactionIndex': 1, 'type': '0x2'})\n",
      "\n",
      "Transaction Result:\n",
      "AttributeDict({'accessList': [], 'blockHash': HexBytes('0xffe89694abce31978d537858ad54f7589c1a00647b1627079320d5a97f867020'), 'blockNumber': 10063754, 'chainId': '0x1a4', 'from': '0xFEED477fa168bcBeC7aBa14a5478Cff80796EDA8', 'gas': 167410, 'gasPrice': 1000000000, 'hash': HexBytes('0xa5f612c2a2b52a6dbd833eae46a6a8a5c3d237e7e5d93ba552ed8952ab2ecf30'), 'input': '0x6cee6b8600000000000000000000000000000000000000000000000000000000000000a0000000000000000000000000000000000000000000000000000000000000018000000000000000000000000000000000000000000000000000000000000001e00000000000000000000000000000000000000000000000000000000000000240000000000000000000000000000000000000000000000000000000000000000000000000000000000000000000000000000000000000000000000000000000020000000000000000000000000000000000000000000000000000000000000040000000000000000000000000000000000000000000000000000000000000008000000000000000000000000000000000000000000000000000000000000000075754492f555344000000000000000000000000000000000000000000000000000000000000000000000000000000000000000000000000000000000000000008434f494e2f555344000000000000000000000000000000000000000000000000000000000000000000000000000000000000000000000000000000000000000200000000000000000000000000000000000000000000000000000000000000080000000000000000000000000000000000000000000000000000000000000008000000000000000000000000000000000000000000000000000000000000000200000000000000000000000000000000000000000000000000000001984ab480000000000000000000000000000000000000000000000000000000016e9d12b8000000000000000000000000000000000000000000000000000000000000000200000000000000000000000000000000000000000000000000000000000000010000000000000000000000000000000000000000000000000000000000000001', 'maxFeePerGas': 1000000000, 'maxPriorityFeePerGas': 1000000000, 'nonce': 27818, 'r': HexBytes('0x553b6335a76101bb1de02acaf5e999130060aeaf5205d96e4e09ac2a0c2467eb'), 's': HexBytes('0x748f807948e502f0cb5a2bffb67d54281b7adf99bcccb0297282f8344e57bd03'), 'to': '0xc7153F37F2fAE03CFB6C145B2B2317869f85D86b', 'transactionIndex': 1, 'type': '0x2', 'v': 0, 'value': 0})\n",
      "\n",
      "Block Number:\n",
      "10063754\n",
      "\n",
      "Block Data:\n",
      "AttributeDict({'baseFeePerGas': 50, 'difficulty': 0, 'extraData': HexBytes('0x'), 'gasLimit': 50000000, 'gasUsed': 230805, 'hash': HexBytes('0xffe89694abce31978d537858ad54f7589c1a00647b1627079320d5a97f867020'), 'logsBloom': HexBytes('0x00000000000000200000000000000200800000000000000000000000000000000000000000000000000000200000000000000000000000000000000000000000000000000000000000000000400000002000000000200000000000000000000000000000000000000000000000000000000000000000000000000000000000000000080000000000000000000000000000000000000000000000000000000000000000000001000000000000000000000000000000000000000000100000000000000000000000000000000000000000000000000000000000000000008000000080000000000000000000000000000000020000000000000000000208000000'), 'miner': '0x4200000000000000000000000000000000000011', 'mixHash': HexBytes('0x2927aa03693c344cfceb4f36de7b1235308cbb1b27374d45eec1422cf791aa07'), 'nonce': HexBytes('0x0000000000000000'), 'number': 10063754, 'parentHash': HexBytes('0x93e8960cd6432fb89efd151221f0311b90e42e5e1ccdbce8b21f19e5adb98860'), 'receiptsRoot': HexBytes('0x2ae1c8cc931ba1dbc29c48b07abaf00f83526ada8eb2c006d2c7429418d9bc08'), 'sha3Uncles': HexBytes('0x1dcc4de8dec75d7aab85b567b6ccd41ad312451b948a7413f0a142fd40d49347'), 'size': 1666, 'stateRoot': HexBytes('0x713cfce51be3e6e88701e3ffde460c2ece6c02db4ff66ae73abb09067f043fa8'), 'timestamp': 1685555576, 'totalDifficulty': 0, 'transactions': [HexBytes('0x029dde4ced25fb2d1ed04e6cd56377cd553f0e18617457fece0ea0f32864cd00'), HexBytes('0xa5f612c2a2b52a6dbd833eae46a6a8a5c3d237e7e5d93ba552ed8952ab2ecf30')], 'transactionsRoot': HexBytes('0x99e7b3144ca7b74bd24732b7519ce08abd7d6abcd75ec3c9c22a2696f18c78b4'), 'uncles': []})\n",
      "optimism-legacy\n",
      "Transaction Receipt:\n",
      "AttributeDict({'transactionHash': HexBytes('0xf659ca817904644883c4180c68ca470ffda9d1bb6f3003e5be7feb8580d1f0c0'), 'blockHash': HexBytes('0xb547ea4812d9117b30ba7c5af13b396feeed80bd306b8ce56f074ecb9358234a'), 'blockNumber': 103592839, 'logs': [AttributeDict({'transactionHash': HexBytes('0xf659ca817904644883c4180c68ca470ffda9d1bb6f3003e5be7feb8580d1f0c0'), 'address': '0xb69c8CBCD90A39D8D3d3ccf0a3E968511C3856A0', 'blockHash': HexBytes('0xb547ea4812d9117b30ba7c5af13b396feeed80bd306b8ce56f074ecb9358234a'), 'blockNumber': 103592839, 'data': '0x000000000000000000000000000000000000000000000000032269bb4867f718', 'logIndex': 0, 'removed': False, 'topics': [HexBytes('0xe1fffcc4923d04b559f4d29a8bfc6cda04eb5b0d3c460751c2402c5c5cc9109c'), HexBytes('0x000000000000000000000000b49c4e680174e331cb0a7ff3ab58afc9738d5f8b')], 'transactionIndex': 0}), AttributeDict({'transactionHash': HexBytes('0xf659ca817904644883c4180c68ca470ffda9d1bb6f3003e5be7feb8580d1f0c0'), 'address': '0xb69c8CBCD90A39D8D3d3ccf0a3E968511C3856A0', 'blockHash': HexBytes('0xb547ea4812d9117b30ba7c5af13b396feeed80bd306b8ce56f074ecb9358234a'), 'blockNumber': 103592839, 'data': '0x000000000000000000000000000000000000000000000000032269bb4867f718', 'logIndex': 1, 'removed': False, 'topics': [HexBytes('0x8c5be1e5ebec7d5bd14f71427d1e84f3dd0314c0f7b2291e5b200ac8c7c3b925'), HexBytes('0x000000000000000000000000b49c4e680174e331cb0a7ff3ab58afc9738d5f8b'), HexBytes('0x000000000000000000000000b0d502e938ed5f4df2e681fe6e419ff29631d62b')], 'transactionIndex': 0}), AttributeDict({'transactionHash': HexBytes('0xf659ca817904644883c4180c68ca470ffda9d1bb6f3003e5be7feb8580d1f0c0'), 'address': '0xd22363e3762cA7339569F3d33EADe20127D5F98C', 'blockHash': HexBytes('0xb547ea4812d9117b30ba7c5af13b396feeed80bd306b8ce56f074ecb9358234a'), 'blockNumber': 103592839, 'data': '0x000000000000000000000000000000000000000000000000000000000000006e000000000000000000000000000000000000000000000000000000000000000d000000000000000000000000b49c4e680174e331cb0a7ff3ab58afc9738d5f8b0000000000000000000000000000000000000000000000000321ee7b1e8842e20000000000000000000000000000000000000000000000000000000000000000000000000000000000000000000000000000000000000000000006299bb195cf000000000000000000000000000000000000000000000000000075168e2e1e670000000000000000000000000000000000000000000000000000000000000000', 'logIndex': 2, 'removed': False, 'topics': [HexBytes('0x34660fc8af304464529f48a778e03d03e4d34bcd5f9b6f0cfbf3cd238c642f7f')], 'transactionIndex': 0}), AttributeDict({'transactionHash': HexBytes('0xf659ca817904644883c4180c68ca470ffda9d1bb6f3003e5be7feb8580d1f0c0'), 'address': '0xb69c8CBCD90A39D8D3d3ccf0a3E968511C3856A0', 'blockHash': HexBytes('0xb547ea4812d9117b30ba7c5af13b396feeed80bd306b8ce56f074ecb9358234a'), 'blockNumber': 103592839, 'data': '0x000000000000000000000000000000000000000000000000032269bb4867f718', 'logIndex': 3, 'removed': False, 'topics': [HexBytes('0xddf252ad1be2c89b69c2b068fc378daa952ba7f163c4a11628f55a4df523b3ef'), HexBytes('0x000000000000000000000000b49c4e680174e331cb0a7ff3ab58afc9738d5f8b'), HexBytes('0x000000000000000000000000d22363e3762ca7339569f3d33eade20127d5f98c')], 'transactionIndex': 0}), AttributeDict({'transactionHash': HexBytes('0xf659ca817904644883c4180c68ca470ffda9d1bb6f3003e5be7feb8580d1f0c0'), 'address': '0xd22363e3762cA7339569F3d33EADe20127D5F98C', 'blockHash': HexBytes('0xb547ea4812d9117b30ba7c5af13b396feeed80bd306b8ce56f074ecb9358234a'), 'blockNumber': 103592839, 'data': '0x000000000000000000000000000000000000000000000000000000000000006e000000000000000000000000000000000000000000000000000000000000000d0000000000000000000000000000000000000000000000000000000000000000000000000000000000000000000000000000000000000057681902445d1e0e92', 'logIndex': 4, 'removed': False, 'topics': [HexBytes('0x6939f93e3f21cf1362eb17155b740277de5687dae9a83a85909fd71da95944e7')], 'transactionIndex': 0}), AttributeDict({'transactionHash': HexBytes('0xf659ca817904644883c4180c68ca470ffda9d1bb6f3003e5be7feb8580d1f0c0'), 'address': '0x81E792e5a9003CC1C8BF5569A00f34b65d75b017', 'blockHash': HexBytes('0xb547ea4812d9117b30ba7c5af13b396feeed80bd306b8ce56f074ecb9358234a'), 'blockNumber': 103592839, 'data': '0x00000000000000000000000000000000000000000000000000015377dd1aaa36', 'logIndex': 5, 'removed': False, 'topics': [HexBytes('0xdf21c415b78ed2552cc9971249e32a053abce6087a0ae0fbf3f78db5174a3493')], 'transactionIndex': 0}), AttributeDict({'transactionHash': HexBytes('0xf659ca817904644883c4180c68ca470ffda9d1bb6f3003e5be7feb8580d1f0c0'), 'address': '0x4D73AdB72bC3DD368966edD0f0b2148401A178E2', 'blockHash': HexBytes('0xb547ea4812d9117b30ba7c5af13b396feeed80bd306b8ce56f074ecb9358234a'), 'blockNumber': 103592839, 'data': '0x0000000000000000000000000000000000000000000000000000000000000040000000000000000000000000000000000000000000000000000000000000000200000000000000000000000000000000000000000000000000000000000000220001000000000000000000000000000000000000000000000000000000000002ab98000000000000000000000000000000000000000000000000000000000000', 'logIndex': 6, 'removed': False, 'topics': [HexBytes('0xb0c632f55f1e1b3b2c3d82f41ee4716bb4c00f0f5d84cdafc141581bb8757a4f')], 'transactionIndex': 0}), AttributeDict({'transactionHash': HexBytes('0xf659ca817904644883c4180c68ca470ffda9d1bb6f3003e5be7feb8580d1f0c0'), 'address': '0xA0Cc33Dd6f4819D473226257792AFe230EC3c67f', 'blockHash': HexBytes('0xb547ea4812d9117b30ba7c5af13b396feeed80bd306b8ce56f074ecb9358234a'), 'blockNumber': 103592839, 'data': '0x000000000000000000000000000000000000000000000000000000000000006e00000000000000000000000000000000000000000000000000000000000000020000000000000000000000000000000000000000000000000000000000000014000000000000000000000000701a95707a0290ac8b90b3719e8ee5b2103608830000000000000000000000000000000000000000000000000000a6e42e541bad', 'logIndex': 7, 'removed': False, 'topics': [HexBytes('0x4e41ee13e03cd5e0446487b524fdc48af6acf26c074dacdbdfb6b574b42c8146')], 'transactionIndex': 0}), AttributeDict({'transactionHash': HexBytes('0xf659ca817904644883c4180c68ca470ffda9d1bb6f3003e5be7feb8580d1f0c0'), 'address': '0x4D73AdB72bC3DD368966edD0f0b2148401A178E2', 'blockHash': HexBytes('0xb547ea4812d9117b30ba7c5af13b396feeed80bd306b8ce56f074ecb9358234a'), 'blockNumber': 103592839, 'data': '0x00000000000000000000000000000000000000000000000000000000000000200000000000000000000000000000000000000000000000000000000000000254000000000010dbb1006f701a95707a0290ac8b90b3719e8ee5b210360883006e352d8275aae3e0c2404d9f68f6cee084b5beb3dd0000000000000000000000000000000000000000000000000000000000000001000000000000000000000000000000000000000000000000000000000000000d000000000000000000000000000000000000000000000000000000000000000d00000000000000000000000000000000000000000000000000000000000000000000000000000000000000000000000000000000000000000000000000000000000000000000000000000000000000000000000000000057681902445d1e0e920000000000000000000000000000000000000000000000000321ee7b1e8842e2000000000000000000000000000000000000000000000000000006299bb195cf00000000000000000000000000000000000000000000000000000000000000000000000000000000000000000000000000000000000000000000000000000000000000000000000000000000000000000000000000000000000075168e2e1e67000000000000000000000000000000000000000000000000032269bb4867f71800000000000000000000000000000000000000000000000000000000000001c0000000000000000000000000000000000000000000000000000000000000020000000000000000000000000000000000000000000000000000000000000000141e0c60887f4c80598a2ea61168bc3d61f4b206030000000000000000000000000000000000000000000000000000000000000000000000000000000000000000000000000000000000000000', 'logIndex': 8, 'removed': False, 'topics': [HexBytes('0xe9bded5f24a4168e4f3bf44e00298c993b22376aad8c58c7dda9718a54cbea82')], 'transactionIndex': 0}), AttributeDict({'transactionHash': HexBytes('0xf659ca817904644883c4180c68ca470ffda9d1bb6f3003e5be7feb8580d1f0c0'), 'address': '0x701a95707A0290AC8B90b3719e8EE5b210360883', 'blockHash': HexBytes('0xb547ea4812d9117b30ba7c5af13b396feeed80bd306b8ce56f074ecb9358234a'), 'blockNumber': 103592839, 'data': '0x0000000000000000000000000000000000000000000000000000000000000001000000000000000000000000000000000000000000000000000000000010dbb1', 'logIndex': 9, 'removed': False, 'topics': [HexBytes('0x8d3ee0df6a4b7e82a7f20a763f1c6826e6176323e655af64f32318827d2112d4')], 'transactionIndex': 0})], 'contractAddress': None, 'cumulativeGasUsed': 390778, 'from': '0x1E0c60887f4C80598A2eA61168BC3d61F4B20603', 'gasUsed': 390778, 'logsBloom': HexBytes('0x000000400200000040000000000000000000400000000000200000010000001000000080000000000004000000180000000000000000000000000000002000000040000000000000000000080000200000010000000000000000000080000000000400000000000100800000000000000000900000004000000000980001000000000004000000000000000000000000000000012c0000000000008000000000020000004000432000000004000000000020000000000000000000800010000000001002000008000000000000000000000000400000000000000000000000001010800002000000000000000000100000010000000000400000400008000000'), 'status': 1, 'to': '0xB49c4e680174E331CB0A7fF3Ab58afC9738d5F8b', 'transactionIndex': 0, 'l1Fee': '0xb97620d69c50', 'l1FeeScalar': '1', 'l1GasPrice': '0x88a0b16c6', 'l1GasUsed': '0x15b8'})\n",
      "\n",
      "Transaction Result:\n",
      "AttributeDict({'blockHash': HexBytes('0xb547ea4812d9117b30ba7c5af13b396feeed80bd306b8ce56f074ecb9358234a'), 'blockNumber': 103592839, 'hash': HexBytes('0xf659ca817904644883c4180c68ca470ffda9d1bb6f3003e5be7feb8580d1f0c0'), 'from': '0x1E0c60887f4C80598A2eA61168BC3d61F4B20603', 'gas': 456383, 'gasPrice': 1000000, 'input': '0x1114cd2a000000000000000000000000000000000000000000000000000000000000006e0000000000000000000000001e0c60887f4c80598a2ea61168bc3d61f4b2060300000000000000000000000000000000000000000000000000000000000000a0000000000000000000000000000000000000000000000000032269bb4867f718000000000000000000000000000000000000000000000000031e66a4961fc3f000000000000000000000000000000000000000000000000000000000000000141e0c60887f4c80598a2ea61168bc3d61f4b20603000000000000000000000000', 'nonce': 6, 'r': HexBytes('0x8a3cbd1d56a0d03337ab3ea906fd5e57990d8ac11705a05394ebb6448be6671a'), 's': HexBytes('0x7fe84256f20cbc7f10e9bb1d9816bc7dc0fc095d57ceff04ebd894ce4547d29c'), 'to': '0xB49c4e680174E331CB0A7fF3Ab58afC9738d5F8b', 'transactionIndex': 0, 'v': 56, 'value': 226415932628974843, 'l1BlockNumber': '0x1094c2a', 'l1Timestamp': '0x6478acbb', 'index': '0x62cb386', 'queueOrigin': 'sequencer', 'rawTransaction': '0xf9015006830f42408306f6bf94b49c4e680174e331cb0a7ff3ab58afc9738d5f8b880324641753d6bcfbb8e41114cd2a000000000000000000000000000000000000000000000000000000000000006e0000000000000000000000001e0c60887f4c80598a2ea61168bc3d61f4b2060300000000000000000000000000000000000000000000000000000000000000a0000000000000000000000000000000000000000000000000032269bb4867f718000000000000000000000000000000000000000000000000031e66a4961fc3f000000000000000000000000000000000000000000000000000000000000000141e0c60887f4c80598a2ea61168bc3d61f4b2060300000000000000000000000038a08a3cbd1d56a0d03337ab3ea906fd5e57990d8ac11705a05394ebb6448be6671aa07fe84256f20cbc7f10e9bb1d9816bc7dc0fc095d57ceff04ebd894ce4547d29c'})\n",
      "\n",
      "Block Number:\n",
      "103592839\n",
      "\n",
      "Block Data:\n",
      "AttributeDict({'number': 103592839, 'hash': HexBytes('0xb547ea4812d9117b30ba7c5af13b396feeed80bd306b8ce56f074ecb9358234a'), 'transactions': [HexBytes('0xf659ca817904644883c4180c68ca470ffda9d1bb6f3003e5be7feb8580d1f0c0')], 'difficulty': 2, 'proofOfAuthorityData': HexBytes('0xd98301090a846765746889676f312e31352e3133856c696e75780000000000007d871afdf689b72a5b948bc14ea3f5a57403bbfc014d5e683f4c1a3f92bacfc641a0ff4cb3815373410f52e0902ecdf195f729b91b7eb2f176a0416600ad11a401'), 'gasLimit': 15000000, 'gasUsed': 390778, 'logsBloom': HexBytes('0x000000400200000040000000000000000000400000000000200000010000001000000080000000000004000000180000000000000000000000000000002000000040000000000000000000080000200000010000000000000000000080000000000400000000000100800000000000000000900000004000000000980001000000000004000000000000000000000000000000012c0000000000008000000000020000004000432000000004000000000020000000000000000000800010000000001002000008000000000000000000000000400000000000000000000000001010800002000000000000000000100000010000000000400000400008000000'), 'miner': '0x0000000000000000000000000000000000000000', 'mixHash': HexBytes('0x0000000000000000000000000000000000000000000000000000000000000000'), 'nonce': HexBytes('0x0000000000000000'), 'parentHash': HexBytes('0x9702fee07afc9467e43ec4a88b74278d5d032da1d103437204af9369d869fb9b'), 'receiptsRoot': HexBytes('0xe0a453b3cb3d336913bef7bcaba8bcb3462c217919d198fb10374bf84a07ae0f'), 'sha3Uncles': HexBytes('0x1dcc4de8dec75d7aab85b567b6ccd41ad312451b948a7413f0a142fd40d49347'), 'size': 954, 'stateRoot': HexBytes('0x6b678f34869fb53a6f99abaf6e6d646d8db83c6203f942ba810170ed86055a51'), 'timestamp': 1685630139, 'totalDifficulty': 207185679, 'transactionsRoot': HexBytes('0x7f5c3092246b7efda9dd63c630d596dbc39899d6e83ef6ad926df79b0ec44daf'), 'uncles': []})\n"
     ]
    }
   ],
   "source": [
    "for c in configs:\n",
    "        chain = c[0]\n",
    "        print(chain)\n",
    "        uri = c[1]\n",
    "        api = os.environ.get('ALCHEMY_OP_API_KEY')\n",
    "        # Connect to a local Ethereum node\n",
    "        web3 = Web3(Web3.HTTPProvider(uri))\n",
    "\n",
    "        # Specify the transaction hash\n",
    "        transaction_hash = c[2]\n",
    "\n",
    "        # Get the transaction receipt\n",
    "        receipt = web3.eth.getTransactionReceipt(transaction_hash)\n",
    "        print(\"Transaction Receipt:\")\n",
    "        print(receipt)\n",
    "\n",
    "        # Get the transaction result\n",
    "        transaction = web3.eth.getTransaction(transaction_hash)\n",
    "        print(\"\\nTransaction Result:\")\n",
    "        print(transaction)\n",
    "\n",
    "        # Get the block number from the transaction receipt\n",
    "        block_number = receipt['blockNumber']\n",
    "        # print(\"\\nBlock Number:\")\n",
    "        # print(block_number)\n",
    "        \n",
    "        if chain == 'optimism-legacy': # Legacy Optimism returned null for block data\n",
    "                web3.middleware_onion.inject(geth_poa_middleware, layer=0)\n",
    "                block = web3.eth.getBlock(block_number, full_transactions=False)\n",
    "        else:\n",
    "                block = web3.eth.getBlock(block_number, full_transactions=False)\n",
    "\n",
    "        print(\"\\nBlock Data:\")\n",
    "        print(block)\n",
    "\n",
    "        gas_price = transaction['gasPrice']\n",
    "        try:\n",
    "                base_fee = block['baseFeePerGas']\n",
    "        except:\n",
    "                base_fee = 0.001\n",
    "\n",
    "        tip = gas_price - base_fee\n",
    "\n",
    "        print('\\n')\n",
    "        # Print\n",
    "\n",
    "        # print('gas price: ' + str(gas_price/1e9))\n",
    "        # print('base fee: ' + str(base_fee/1e9))\n",
    "        # print('tip: ' + str(tip/1e9))\n"
   ]
  }
 ],
 "metadata": {
  "kernelspec": {
   "display_name": "new-env",
   "language": "python",
   "name": "python3"
  },
  "language_info": {
   "codemirror_mode": {
    "name": "ipython",
    "version": 3
   },
   "file_extension": ".py",
   "mimetype": "text/x-python",
   "name": "python",
   "nbconvert_exporter": "python",
   "pygments_lexer": "ipython3",
   "version": "3.9.7"
  },
  "orig_nbformat": 4
 },
 "nbformat": 4,
 "nbformat_minor": 2
}
