{
 "cells": [
  {
   "cell_type": "code",
   "execution_count": 1,
   "metadata": {},
   "outputs": [],
   "source": [
    "# NOTE: This uses a modified ethereum-etl here: https://github.com/MSilb7/optimism-etl\n",
    "\n",
    "import sys\n",
    "import json\n",
    "from web3 import Web3\n",
    "from web3.middleware import geth_poa_middleware\n",
    "from eth_utils import to_hex\n",
    "sys.path.append(\"../helper_functions\")\n",
    "import ethereumetl_utils as eetl\n",
    "import web3py_utils as wpy\n",
    "import pandas_utils as pu\n",
    "import evm_utils as evm\n",
    "sys.path.pop()\n",
    "\n",
    "import pandas as pd\n",
    "from dotenv import load_dotenv\n",
    "import requests\n",
    "import datetime\n",
    "load_dotenv()\n",
    "import os\n",
    "\n",
    "configs = [\n",
    "        #  ['ethereum',os.environ.get('ETHEREUM_NODE'),'0x2bd9c2576fd499909a96965318a176c5d2d0edd2c7be2f481305c55dc5327bad']\n",
    "          # ['optimism-goerli-ecotone-user-tx',os.environ.get('OP_GOERLI'),'0x6f6dfc6d1e6948eb804c0ee932caa33fa330ab905993a05bba5c28f4f958d3e3']\n",
    "          # ,['optimism-goerli-ecotone-system-tx',os.environ.get('OP_GOERLI'),'0xc7ca2792688883b59a4f0322ecdf8296094a41aada97ae229997c2689f91d13f']\n",
    "          # ['optimism-sepolia-ecotone-user-tx',os.environ.get('OP_SEPOLIA'),'0x157027dfdbfddaab92dc7bf353f0ebc277af2d8a327fc67dc36314a86c9a1596']\n",
    "          # ,['optimism-sepolia-ecotone-system-tx',os.environ.get('OP_SEPOLIA'),'0x7e5a49e2afb06047db1d79e2708776ad1854b0952e5f3518ad34be7321a85cd4']\n",
    "          # ['optimism-legacy',os.environ.get('OP_NODE'),'0xcea81f2e836a37b38ba82afd37e6f66c02e348e7b89538aa232013d91edcb926']\n",
    "          # ['optimism-sample','https://optimism.llamarpc.com','0xcea81f2e836a37b38ba82afd37e6f66c02e348e7b89538aa232013d91edcb926']\n",
    "          ['optimism-sample2','https://rpc.ankr.com/optimism','0xcea81f2e836a37b38ba82afd37e6f66c02e348e7b89538aa232013d91edcb926']\n",
    "          # 'mode-sample','https://mainnet.mode.network','0x49b6bc267b49db847c91e832c344a1c6c268269dc5c8cfa0e697e61d2483b288']\n",
    "]"
   ]
  },
  {
   "cell_type": "code",
   "execution_count": 2,
   "metadata": {},
   "outputs": [
    {
     "name": "stdout",
     "output_type": "stream",
     "text": [
      "-------optimism-sample2-------\n",
      "Transaction Receipt:\n",
      "AttributeDict({'blockHash': HexBytes('0x694fb0156a5719a8ee75ebf2568e8a8d55899db9312127f0d4fe5001c06ac397'), 'blockNumber': 120731426, 'contractAddress': None, 'cumulativeGasUsed': 163702, 'effectiveGasPrice': 4307539, 'from': '0x899e837095a0F3CC62FB05998559Df90F26A1F46', 'gasUsed': 34408, 'l1BaseFeeScalar': '0x558', 'l1BlobBaseFee': '0x1', 'l1BlobBaseFeeScalar': '0xc5fc5', 'l1Fee': '0x70036519c', 'l1GasPrice': '0x23e9a915e', 'l1GasUsed': '0x8e8', 'logs': [AttributeDict({'address': '0xdC6fF44d5d932Cbd77B52E5612Ba0529DC6226F1', 'topics': [HexBytes('0xddf252ad1be2c89b69c2b068fc378daa952ba7f163c4a11628f55a4df523b3ef'), HexBytes('0x000000000000000000000000899e837095a0f3cc62fb05998559df90f26a1f46'), HexBytes('0x0000000000000000000000007a6e883eec3dd33528115637ea01b3b64e2f5849')], 'data': '0x0000000000000000000000000000000000000000000000009e34ef99a7740000', 'blockNumber': 120731426, 'transactionHash': HexBytes('0xcea81f2e836a37b38ba82afd37e6f66c02e348e7b89538aa232013d91edcb926'), 'transactionIndex': 4, 'blockHash': HexBytes('0x694fb0156a5719a8ee75ebf2568e8a8d55899db9312127f0d4fe5001c06ac397'), 'logIndex': 1, 'removed': False})], 'logsBloom': HexBytes('0x00000000000000000000000000000000000000100000000140000000000000000000000000000000000000010000000000000000000000000000000000000000000000000000000000004008000000000000000000000000000000000000000000000000000000000000000000000000000000000000000000000010000000000000000000000000200000000000000000000000800000000000000000000000000000000000000000000000000000000000000000000000000000000000000040000002000000000000000200000000000000000000000000000000000000000000000000000000000000000000000000000000000000000000000000000000'), 'status': 1, 'to': '0xdC6fF44d5d932Cbd77B52E5612Ba0529DC6226F1', 'transactionHash': HexBytes('0xcea81f2e836a37b38ba82afd37e6f66c02e348e7b89538aa232013d91edcb926'), 'transactionIndex': 4, 'type': '0x0'})\n",
      "\n",
      "Transaction Result:\n",
      "AttributeDict({'blockHash': HexBytes('0x694fb0156a5719a8ee75ebf2568e8a8d55899db9312127f0d4fe5001c06ac397'), 'blockNumber': 120731426, 'from': '0x899e837095a0F3CC62FB05998559Df90F26A1F46', 'gas': 69534, 'gasPrice': 4307539, 'hash': HexBytes('0xcea81f2e836a37b38ba82afd37e6f66c02e348e7b89538aa232013d91edcb926'), 'input': '0xa9059cbb0000000000000000000000007a6e883eec3dd33528115637ea01b3b64e2f58490000000000000000000000000000000000000000000000009e34ef99a7740000', 'nonce': 206, 'to': '0xdC6fF44d5d932Cbd77B52E5612Ba0529DC6226F1', 'transactionIndex': 4, 'value': 0, 'type': '0x0', 'chainId': '0xa', 'v': 55, 'r': HexBytes('0x6727a53c0972c55923242cea052dc4e1105d7b65c91c442e2741440965eac357'), 's': HexBytes('0x0a8e71aea623adb7b5562fb9a779634f3b84dad7be1e1f22caaa640db352a6ff')})\n",
      "\n",
      "Raw Transaction:\n",
      "0xf8a981ce8341ba5383010f9e94dc6ff44d5d932cbd77b52e5612ba0529dc6226f180b844a9059cbb0000000000000000000000007a6e883eec3dd33528115637ea01b3b64e2f58490000000000000000000000000000000000000000000000009e34ef99a774000037a06727a53c0972c55923242cea052dc4e1105d7b65c91c442e2741440965eac357a00a8e71aea623adb7b5562fb9a779634f3b84dad7be1e1f22caaa640db352a6ff\n",
      "\n",
      "Block Data:\n",
      "AttributeDict({'baseFeePerGas': 3332024, 'blobGasUsed': '0x0', 'difficulty': 0, 'excessBlobGas': '0x0', 'extraData': HexBytes('0x'), 'gasLimit': 30000000, 'gasUsed': 163702, 'hash': HexBytes('0x694fb0156a5719a8ee75ebf2568e8a8d55899db9312127f0d4fe5001c06ac397'), 'logsBloom': HexBytes('0x00000000000000000000000000000000000000100000000140000000000000000000000000000000000000010000000000000000000080000000000000040000000001000000000000004008000000000000000000040000000000000000000000000000000000000000000000000000000000000000000000000010000000000080000000000000200040002000000000000000800002000000000000000000000000000000000000010000000000000000000004000000000000000000000040000002000000000000000200000000000000000000000000000000000040000000000000000000000000000000000000000000000000000000000000000000'), 'miner': '0x4200000000000000000000000000000000000011', 'mixHash': HexBytes('0xe28ef4d0a8789248a54dc2ba27a1a6e2c35d502a0d30b232e9bd2dd294b4bd24'), 'nonce': HexBytes('0x0000000000000000'), 'number': 120731426, 'parentBeaconBlockRoot': '0x4b7cb98e2bab73f44da2afe1a6f4ad0bf7edace0198a1e3f988d36644f408391', 'parentHash': HexBytes('0x0420ccb7fc9cd622c6aa3e5e3030347450375e8bfde84f078cfc981dc6710837'), 'receiptsRoot': HexBytes('0x5d9129570d5c4a9da7875ebec434715fe9d5c190890bbf4aa12848e3cd87f695'), 'sha3Uncles': HexBytes('0x1dcc4de8dec75d7aab85b567b6ccd41ad312451b948a7413f0a142fd40d49347'), 'size': 1655, 'stateRoot': HexBytes('0xa338c28f201d249f6fc654f0696d9e21a3bfe94bc72b64206ac599e6da581c7a'), 'timestamp': 1717061629, 'totalDifficulty': 0, 'transactions': [HexBytes('0xe815392107326b2cb6cbdc739d0b7d49012849d830af629b3eae5013b9d91661'), HexBytes('0x6bacfa195220327270f9e73a1720461183d1c89fdecd74aae5fbbeb8f757ce2a'), HexBytes('0xd9073c78c7d28690501609ec82a9afa41ff4b7b85911cffd1df55e2fe0f7feef'), HexBytes('0xac36d6801dffea20708190f92583e0bb01bf385fd8acc5087744efaaeaa148a0'), HexBytes('0xcea81f2e836a37b38ba82afd37e6f66c02e348e7b89538aa232013d91edcb926')], 'transactionsRoot': HexBytes('0x48a7a17333543e4e22d5683ccc58f65afd8199519e1404989a78d04313dcd66c'), 'uncles': [], 'withdrawals': [], 'withdrawalsRoot': '0x56e81f171bcc55a6ff8345e692c0f86e5b48e01b996cadc001622fb5e363b421'})\n",
      "\n",
      "\n"
     ]
    }
   ],
   "source": [
    "for c in configs:\n",
    "        chain = c[0]\n",
    "        print('-------' + chain + '-------')\n",
    "        uri = c[1]\n",
    "        # api = os.environ.get('ALCHEMY_OP_API_KEY')\n",
    "        # Connect to a local Ethereum node\n",
    "        web3 = Web3(Web3.HTTPProvider(uri))\n",
    "\n",
    "        # Specify the transaction hash\n",
    "        transaction_hash = c[2]\n",
    "\n",
    "        # Get the transaction receipt\n",
    "        receipt = web3.eth.get_transaction_receipt(transaction_hash)\n",
    "        print(\"Transaction Receipt:\")\n",
    "        print(receipt)\n",
    "\n",
    "        # Get the transaction result\n",
    "        transaction = web3.eth.get_transaction(transaction_hash)\n",
    "        print(\"\\nTransaction Result:\")\n",
    "        print(transaction)\n",
    "\n",
    "        # Get the raw transaction\n",
    "        raw_transaction = web3.eth.get_raw_transaction(transaction_hash)\n",
    "        print(\"\\nRaw Transaction:\")\n",
    "        # print(raw_transaction)\n",
    "        print(to_hex(raw_transaction))\n",
    "\n",
    "        # Get the block number from the transaction receipt\n",
    "        block_number = receipt['blockNumber']\n",
    "        # print(\"\\nBlock Number:\")\n",
    "        # print(block_number)\n",
    "        \n",
    "        if chain == 'optimism-legacy': # Legacy Optimism returned null for block data\n",
    "                web3.middleware_onion.inject(geth_poa_middleware, layer=0)\n",
    "                block = web3.eth.get_block(block_number, full_transactions=False)\n",
    "        else:\n",
    "                block = web3.eth.get_block(block_number, full_transactions=False)\n",
    "\n",
    "        print(\"\\nBlock Data:\")\n",
    "        print(block)\n",
    "\n",
    "        gas_price = transaction['gasPrice']\n",
    "        try:\n",
    "                base_fee = block['baseFeePerGas']\n",
    "        except:\n",
    "                base_fee = 0.001\n",
    "\n",
    "        tip = gas_price - base_fee\n",
    "\n",
    "        print('\\n')\n",
    "        # Print\n",
    "\n",
    "        # print('gas price: ' + str(gas_price/1e9))\n",
    "        # print('base fee: ' + str(base_fee/1e9))\n",
    "        # print('tip: ' + str(tip/1e9))\n"
   ]
  },
  {
   "cell_type": "code",
   "execution_count": 3,
   "metadata": {},
   "outputs": [],
   "source": [
    "# # Decode Attributes Deposited ABI\n",
    "# # The implementation contract address\n",
    "# contract_address = \"0x6dF83A19647A398d48e77a6835F4A28EB7e2f7c0\"\n",
    "# # Load the ABI from the local file\n",
    "# with open(\"inputs/op_attributes_deposited_abi_implementation.txt\", \"r\") as abi_file:\n",
    "#     contract_abi = json.load(abi_file)\n",
    "    \n",
    "# # Initialize the contract using the proxy address and ABI\n",
    "# contract = web3.eth.contract(address=contract_address, abi=contract_abi)\n",
    "# # Example transaction input data (you'll replace this with the actual input data)\n",
    "# transaction_system = ''\n",
    "# for c in configs:\n",
    "#     if c[0].str.contains('system-tx'):\n",
    "#         transaction_system = web3.eth.get_transaction(transaction_hash)\n",
    "# transaction_input = transaction_system['input']\n",
    "# print(transaction_input)\n",
    "# # Decode the transaction input\n",
    "# decoded_input = contract.decode_function_input(transaction_input)\n",
    "\n",
    "# print(decoded_input)"
   ]
  }
 ],
 "metadata": {
  "kernelspec": {
   "display_name": "new-env",
   "language": "python",
   "name": "python3"
  },
  "language_info": {
   "codemirror_mode": {
    "name": "ipython",
    "version": 3
   },
   "file_extension": ".py",
   "mimetype": "text/x-python",
   "name": "python",
   "nbconvert_exporter": "python",
   "pygments_lexer": "ipython3",
   "version": "3.10.8"
  },
  "orig_nbformat": 4
 },
 "nbformat": 4,
 "nbformat_minor": 2
}
